{
  "address": "0xa513E6E4b8f2a923D98304ec87F64353C4D5C853",
  "abi": [
    {
      "inputs": [
        {
          "internalType": "address",
          "name": "exampleExternalContractAddress",
          "type": "address"
        }
      ],
      "stateMutability": "nonpayable",
      "type": "constructor"
    },
    {
      "anonymous": false,
      "inputs": [
        {
          "indexed": true,
          "internalType": "address",
          "name": "staker",
          "type": "address"
        },
        {
          "indexed": false,
          "internalType": "string",
          "name": "message",
          "type": "string"
        }
      ],
      "name": "LogStake",
      "type": "event"
    },
    {
      "inputs": [],
      "name": "THRESHOLD",
      "outputs": [
        {
          "internalType": "uint256",
          "name": "",
          "type": "uint256"
        }
      ],
      "stateMutability": "view",
      "type": "function"
    },
    {
      "inputs": [
        {
          "internalType": "address",
          "name": "",
          "type": "address"
        }
      ],
      "name": "balances",
      "outputs": [
        {
          "internalType": "uint256",
          "name": "",
          "type": "uint256"
        }
      ],
      "stateMutability": "view",
      "type": "function"
    },
    {
      "inputs": [],
      "name": "deadline",
      "outputs": [
        {
          "internalType": "uint256",
          "name": "",
          "type": "uint256"
        }
      ],
      "stateMutability": "view",
      "type": "function"
    },
    {
      "inputs": [],
      "name": "exampleExternalContract",
      "outputs": [
        {
          "internalType": "contract ExampleExternalContract",
          "name": "",
          "type": "address"
        }
      ],
      "stateMutability": "view",
      "type": "function"
    },
    {
      "inputs": [],
      "name": "execute",
      "outputs": [],
      "stateMutability": "nonpayable",
      "type": "function"
    },
    {
      "inputs": [],
      "name": "stake",
      "outputs": [],
      "stateMutability": "payable",
      "type": "function"
    },
    {
      "inputs": [],
      "name": "timeLeft",
      "outputs": [
        {
          "internalType": "uint256",
          "name": "",
          "type": "uint256"
        }
      ],
      "stateMutability": "view",
      "type": "function"
    },
    {
      "inputs": [],
      "name": "withdraw",
      "outputs": [],
      "stateMutability": "nonpayable",
      "type": "function"
    },
    {
      "stateMutability": "payable",
      "type": "receive"
    }
  ],
  "transactionHash": "0x1dd2cd6d507a3ca338eaf655b38ab56ef4d4f977e66886e44475988f672ec5a0",
  "args": [
    "0x0165878A594ca255338adfa4d48449f69242Eb8F"
  ],
  "solcInputHash": "db32fa6ca21316f5d92e334dcdd413e0",
  "bytecode": "0x6080604052610011426203f480610094565b60025534801561002057600080fd5b5060405161090338038061090383398101604081905261003f91610064565b600080546001600160a01b0319166001600160a01b03929092169190911790556100ba565b60006020828403121561007657600080fd5b81516001600160a01b038116811461008d57600080fd5b9392505050565b600082198211156100b557634e487b7160e01b600052601160045260246000fd5b500190565b61083a806100c96000396000f3fe60806040526004361061007f5760003560e01c80633ccfd60b1161004e5780633ccfd60b14610106578063614619541461011b578063785ffb37146101305780639f75f2271461014c57600080fd5b80631300a6d11461009357806327e235e3146100bb57806329dcb0cf146100e85780633a4b66f1146100fe57600080fd5b3661008e5761008c610184565b005b600080fd5b34801561009f57600080fd5b506100a8610214565b6040519081526020015b60405180910390f35b3480156100c757600080fd5b506100a86100d63660046106ca565b60016020526000908152604090205481565b3480156100f457600080fd5b506100a860025481565b61008c610184565b34801561011257600080fd5b5061008c610238565b34801561012757600080fd5b5061008c6103c3565b34801561013c57600080fd5b506100a8670de0b6b3a764000081565b34801561015857600080fd5b5060005461016c906001600160a01b031681565b6040516001600160a01b0390911681526020016100b2565b33600090815260016020526040812080543492906101a390849061076b565b909155505060405133907f04e85c8d2cb51d0bcfb2b7a8aa696672a0335545ebdff3abc02605f7935d40c19061020a906020808252601c908201527f596f752068617665206a757374207374616b6564207769746820757300000000604082015260600190565b60405180910390a2565b600060025442106102255750600090565b426002546102339190610783565b905090565b60016000610244610214565b9050811561025a576102a8565b60405180910390fd5b80156102a85760405162461bcd60e51b815260206004820152601d60248201527f5468657265206973207374696c6c20736f6d652074696d65206c6566740000006044820152606401610251565b33600090815260016020526040902054806103165760405162461bcd60e51b815260206004820152602860248201527f43616e2774207769746864726177207768656e20796f75722062616c616e6365604482015267206973207a65726f60c01b6064820152608401610251565b336000818152600160205260408082208290555190919083908381818185875af1925050503d8060008114610367576040519150601f19603f3d011682016040523d82523d6000602084013e61036c565b606091505b50509050806103bd5760405162461bcd60e51b815260206004820152601b60248201527f6661696c656420746f2073656e7420757365722062616c616e636500000000006044820152606401610251565b50505050565b6000806103ce610214565b905081156103db57610429565b80156104295760405162461bcd60e51b815260206004820152601d60248201527f5468657265206973207374696c6c20736f6d652074696d65206c6566740000006044820152606401610251565b60008060009054906101000a90046001600160a01b03166001600160a01b0316639d9a7fe96040518163ffffffff1660e01b815260040160206040518083038186803b15801561047857600080fd5b505afa15801561048c573d6000803e3d6000fd5b505050506040513d601f19601f820116820180604052508101906104b091906106fa565b905080156105005760405162461bcd60e51b815260206004820181905260248201527f7374616b696e672070726f6365737320616c726561647920636f6d706c6574656044820152606401610251565b47670de0b6b3a76400008110156105515760405162461bcd60e51b81526020600482015260156024820152741d1a1c995cda1bdb19081b9bdd081c995858da1959605a1b6044820152606401610251565b6000805460408051600481526024810182526020810180516001600160e01b031663522e117760e01b17905290516001600160a01b039092169184916105969161071c565b60006040518083038185875af1925050503d80600081146105d3576040519150601f19603f3d011682016040523d82523d6000602084013e6105d8565b606091505b505090506105fd6040518060600160405280602881526020016107dd60289139610663565b8061065c5760405162461bcd60e51b815260206004820152602960248201527f756e61626c6520746f2073656e642066756e647320746f2065787465726e616c6044820152680818dbdb9d1c9858dd60ba1b6064820152608401610251565b5050505050565b6106a6816040516024016106779190610738565b60408051601f198184030181529190526020810180516001600160e01b031663104c13eb60e21b1790526106a9565b50565b80516a636f6e736f6c652e6c6f67602083016000808483855afa5050505050565b6000602082840312156106dc57600080fd5b81356001600160a01b03811681146106f357600080fd5b9392505050565b60006020828403121561070c57600080fd5b815180151581146106f357600080fd5b6000825161072e81846020870161079a565b9190910192915050565b602081526000825180602084015261075781604085016020870161079a565b601f01601f19169190910160400192915050565b6000821982111561077e5761077e6107c6565b500190565b600082821015610795576107956107c6565b500390565b60005b838110156107b557818101518382015260200161079d565b838111156103bd5750506000910152565b634e487b7160e01b600052601160045260246000fdfe0a0920f09f93a42073656e64696e6720746f2065787465726e616c20636f6e74726163742e2e2e0aa26469706673582212200c2e0c3735eb4cf0437f732cbcede901f52f0d0045cb60e994b378facdf35bb264736f6c63430008060033",
  "devdoc": {
    "kind": "dev",
    "methods": {},
    "version": 1
  },
  "userdoc": {
    "kind": "user",
    "methods": {},
    "version": 1
  },
  "storageLayout": {
    "storage": [
      {
        "astId": 19,
        "contract": "contracts/Staker.sol:Staker",
        "label": "exampleExternalContract",
        "offset": 0,
        "slot": "0",
        "type": "t_contract(ExampleExternalContract)12"
      },
      {
        "astId": 35,
        "contract": "contracts/Staker.sol:Staker",
        "label": "balances",
        "offset": 0,
        "slot": "1",
        "type": "t_mapping(t_address,t_uint256)"
      },
      {
        "astId": 68,
        "contract": "contracts/Staker.sol:Staker",
        "label": "deadline",
        "offset": 0,
        "slot": "2",
        "type": "t_uint256"
      }
    ],
    "types": {
      "t_address": {
        "encoding": "inplace",
        "label": "address",
        "numberOfBytes": "20"
      },
      "t_contract(ExampleExternalContract)12": {
        "encoding": "inplace",
        "label": "contract ExampleExternalContract",
        "numberOfBytes": "20"
      },
      "t_mapping(t_address,t_uint256)": {
        "encoding": "mapping",
        "key": "t_address",
        "label": "mapping(address => uint256)",
        "numberOfBytes": "32",
        "value": "t_uint256"
      },
      "t_uint256": {
        "encoding": "inplace",
        "label": "uint256",
        "numberOfBytes": "32"
      }
    }
  }
}